{
  "_format": "hh-sol-artifact-1",
  "contractName": "DomainNFT",
  "sourceName": "contracts/DomainNFT.sol",
  "abi": [
    {
      "inputs": [],
      "stateMutability": "nonpayable",
      "type": "constructor"
    },
    {
      "inputs": [
        {
          "internalType": "address",
          "name": "sender",
          "type": "address"
        },
        {
          "internalType": "uint256",
          "name": "tokenId",
          "type": "uint256"
        },
        {
          "internalType": "address",
          "name": "owner",
          "type": "address"
        }
      ],
      "name": "ERC721IncorrectOwner",
      "type": "error"
    },
    {
      "inputs": [
        {
          "internalType": "address",
          "name": "operator",
          "type": "address"
        },
        {
          "internalType": "uint256",
          "name": "tokenId",
          "type": "uint256"
        }
      ],
      "name": "ERC721InsufficientApproval",
      "type": "error"
    },
    {
      "inputs": [
        {
          "internalType": "address",
          "name": "approver",
          "type": "address"
        }
      ],
      "name": "ERC721InvalidApprover",
      "type": "error"
    },
    {
      "inputs": [
        {
          "internalType": "address",
          "name": "operator",
          "type": "address"
        }
      ],
      "name": "ERC721InvalidOperator",
      "type": "error"
    },
    {
      "inputs": [
        {
          "internalType": "address",
          "name": "owner",
          "type": "address"
        }
      ],
      "name": "ERC721InvalidOwner",
      "type": "error"
    },
    {
      "inputs": [
        {
          "internalType": "address",
          "name": "receiver",
          "type": "address"
        }
      ],
      "name": "ERC721InvalidReceiver",
      "type": "error"
    },
    {
      "inputs": [
        {
          "internalType": "address",
          "name": "sender",
          "type": "address"
        }
      ],
      "name": "ERC721InvalidSender",
      "type": "error"
    },
    {
      "inputs": [
        {
          "internalType": "uint256",
          "name": "tokenId",
          "type": "uint256"
        }
      ],
      "name": "ERC721NonexistentToken",
      "type": "error"
    },
    {
      "inputs": [
        {
          "internalType": "address",
          "name": "owner",
          "type": "address"
        }
      ],
      "name": "OwnableInvalidOwner",
      "type": "error"
    },
    {
      "inputs": [
        {
          "internalType": "address",
          "name": "account",
          "type": "address"
        }
      ],
      "name": "OwnableUnauthorizedAccount",
      "type": "error"
    },
    {
      "anonymous": false,
      "inputs": [
        {
          "indexed": true,
          "internalType": "address",
          "name": "owner",
          "type": "address"
        },
        {
          "indexed": true,
          "internalType": "address",
          "name": "approved",
          "type": "address"
        },
        {
          "indexed": true,
          "internalType": "uint256",
          "name": "tokenId",
          "type": "uint256"
        }
      ],
      "name": "Approval",
      "type": "event"
    },
    {
      "anonymous": false,
      "inputs": [
        {
          "indexed": true,
          "internalType": "address",
          "name": "owner",
          "type": "address"
        },
        {
          "indexed": true,
          "internalType": "address",
          "name": "operator",
          "type": "address"
        },
        {
          "indexed": false,
          "internalType": "bool",
          "name": "approved",
          "type": "bool"
        }
      ],
      "name": "ApprovalForAll",
      "type": "event"
    },
    {
      "anonymous": false,
      "inputs": [
        {
          "indexed": true,
          "internalType": "address",
          "name": "previousOwner",
          "type": "address"
        },
        {
          "indexed": true,
          "internalType": "address",
          "name": "newOwner",
          "type": "address"
        }
      ],
      "name": "OwnershipTransferred",
      "type": "event"
    },
    {
      "anonymous": false,
      "inputs": [
        {
          "indexed": true,
          "internalType": "address",
          "name": "from",
          "type": "address"
        },
        {
          "indexed": true,
          "internalType": "address",
          "name": "to",
          "type": "address"
        },
        {
          "indexed": true,
          "internalType": "uint256",
          "name": "tokenId",
          "type": "uint256"
        }
      ],
      "name": "Transfer",
      "type": "event"
    },
    {
      "inputs": [
        {
          "internalType": "address",
          "name": "to",
          "type": "address"
        },
        {
          "internalType": "uint256",
          "name": "tokenId",
          "type": "uint256"
        }
      ],
      "name": "approve",
      "outputs": [],
      "stateMutability": "nonpayable",
      "type": "function"
    },
    {
      "inputs": [
        {
          "internalType": "address",
          "name": "owner",
          "type": "address"
        }
      ],
      "name": "balanceOf",
      "outputs": [
        {
          "internalType": "uint256",
          "name": "",
          "type": "uint256"
        }
      ],
      "stateMutability": "view",
      "type": "function"
    },
    {
      "inputs": [
        {
          "internalType": "uint256",
          "name": "tokenId",
          "type": "uint256"
        }
      ],
      "name": "getApproved",
      "outputs": [
        {
          "internalType": "address",
          "name": "",
          "type": "address"
        }
      ],
      "stateMutability": "view",
      "type": "function"
    },
    {
      "inputs": [
        {
          "internalType": "address",
          "name": "owner",
          "type": "address"
        },
        {
          "internalType": "address",
          "name": "operator",
          "type": "address"
        }
      ],
      "name": "isApprovedForAll",
      "outputs": [
        {
          "internalType": "bool",
          "name": "",
          "type": "bool"
        }
      ],
      "stateMutability": "view",
      "type": "function"
    },
    {
      "inputs": [
        {
          "internalType": "address",
          "name": "to",
          "type": "address"
        }
      ],
      "name": "mintDomainNFT",
      "outputs": [
        {
          "internalType": "uint256",
          "name": "",
          "type": "uint256"
        }
      ],
      "stateMutability": "nonpayable",
      "type": "function"
    },
    {
      "inputs": [],
      "name": "name",
      "outputs": [
        {
          "internalType": "string",
          "name": "",
          "type": "string"
        }
      ],
      "stateMutability": "view",
      "type": "function"
    },
    {
      "inputs": [],
      "name": "owner",
      "outputs": [
        {
          "internalType": "address",
          "name": "",
          "type": "address"
        }
      ],
      "stateMutability": "view",
      "type": "function"
    },
    {
      "inputs": [
        {
          "internalType": "uint256",
          "name": "tokenId",
          "type": "uint256"
        }
      ],
      "name": "ownerOf",
      "outputs": [
        {
          "internalType": "address",
          "name": "",
          "type": "address"
        }
      ],
      "stateMutability": "view",
      "type": "function"
    },
    {
      "inputs": [],
      "name": "renounceOwnership",
      "outputs": [],
      "stateMutability": "nonpayable",
      "type": "function"
    },
    {
      "inputs": [
        {
          "internalType": "address",
          "name": "from",
          "type": "address"
        },
        {
          "internalType": "address",
          "name": "to",
          "type": "address"
        },
        {
          "internalType": "uint256",
          "name": "tokenId",
          "type": "uint256"
        }
      ],
      "name": "safeTransferFrom",
      "outputs": [],
      "stateMutability": "nonpayable",
      "type": "function"
    },
    {
      "inputs": [
        {
          "internalType": "address",
          "name": "from",
          "type": "address"
        },
        {
          "internalType": "address",
          "name": "to",
          "type": "address"
        },
        {
          "internalType": "uint256",
          "name": "tokenId",
          "type": "uint256"
        },
        {
          "internalType": "bytes",
          "name": "data",
          "type": "bytes"
        }
      ],
      "name": "safeTransferFrom",
      "outputs": [],
      "stateMutability": "nonpayable",
      "type": "function"
    },
    {
      "inputs": [
        {
          "internalType": "address",
          "name": "operator",
          "type": "address"
        },
        {
          "internalType": "bool",
          "name": "approved",
          "type": "bool"
        }
      ],
      "name": "setApprovalForAll",
      "outputs": [],
      "stateMutability": "nonpayable",
      "type": "function"
    },
    {
      "inputs": [
        {
          "internalType": "bytes4",
          "name": "interfaceId",
          "type": "bytes4"
        }
      ],
      "name": "supportsInterface",
      "outputs": [
        {
          "internalType": "bool",
          "name": "",
          "type": "bool"
        }
      ],
      "stateMutability": "view",
      "type": "function"
    },
    {
      "inputs": [],
      "name": "symbol",
      "outputs": [
        {
          "internalType": "string",
          "name": "",
          "type": "string"
        }
      ],
      "stateMutability": "view",
      "type": "function"
    },
    {
      "inputs": [],
      "name": "tokenCounter",
      "outputs": [
        {
          "internalType": "uint256",
          "name": "",
          "type": "uint256"
        }
      ],
      "stateMutability": "view",
      "type": "function"
    },
    {
      "inputs": [
        {
          "internalType": "uint256",
          "name": "tokenId",
          "type": "uint256"
        }
      ],
      "name": "tokenURI",
      "outputs": [
        {
          "internalType": "string",
          "name": "",
          "type": "string"
        }
      ],
      "stateMutability": "view",
      "type": "function"
    },
    {
      "inputs": [
        {
          "internalType": "address",
          "name": "from",
          "type": "address"
        },
        {
          "internalType": "address",
          "name": "to",
          "type": "address"
        },
        {
          "internalType": "uint256",
          "name": "tokenId",
          "type": "uint256"
        }
      ],
      "name": "transferFrom",
      "outputs": [],
      "stateMutability": "nonpayable",
      "type": "function"
    },
    {
      "inputs": [
        {
          "internalType": "address",
          "name": "newOwner",
          "type": "address"
        }
      ],
      "name": "transferOwnership",
      "outputs": [],
      "stateMutability": "nonpayable",
      "type": "function"
    }
  ],
  "bytecode": "0x60806040523480156200001157600080fd5b50336040518060400160405280600e81526020017f496d6d6f7274616c446f6d61696e0000000000000000000000000000000000008152506040518060400160405280600381526020017f494d44000000000000000000000000000000000000000000000000000000000081525081600090816200009091906200047a565b508060019081620000a291906200047a565b505050600073ffffffffffffffffffffffffffffffffffffffff168173ffffffffffffffffffffffffffffffffffffffff16036200011a5760006040517f1e4fbdf7000000000000000000000000000000000000000000000000000000008152600401620001119190620005a6565b60405180910390fd5b6200012b816200013a60201b60201c565b506000600781905550620005c3565b6000600660009054906101000a900473ffffffffffffffffffffffffffffffffffffffff16905081600660006101000a81548173ffffffffffffffffffffffffffffffffffffffff021916908373ffffffffffffffffffffffffffffffffffffffff1602179055508173ffffffffffffffffffffffffffffffffffffffff168173ffffffffffffffffffffffffffffffffffffffff167f8be0079c531659141344cd1fd0a4f28419497f9722a3daafe3b4186f6b6457e060405160405180910390a35050565b600081519050919050565b7f4e487b7100000000000000000000000000000000000000000000000000000000600052604160045260246000fd5b7f4e487b7100000000000000000000000000000000000000000000000000000000600052602260045260246000fd5b600060028204905060018216806200028257607f821691505b6020821081036200029857620002976200023a565b5b50919050565b60008190508160005260206000209050919050565b60006020601f8301049050919050565b600082821b905092915050565b600060088302620003027fffffffffffffffffffffffffffffffffffffffffffffffffffffffffffffffff82620002c3565b6200030e8683620002c3565b95508019841693508086168417925050509392505050565b6000819050919050565b6000819050919050565b60006200035b620003556200034f8462000326565b62000330565b62000326565b9050919050565b6000819050919050565b62000377836200033a565b6200038f620003868262000362565b848454620002d0565b825550505050565b600090565b620003a662000397565b620003b38184846200036c565b505050565b5b81811015620003db57620003cf6000826200039c565b600181019050620003b9565b5050565b601f8211156200042a57620003f4816200029e565b620003ff84620002b3565b810160208510156200040f578190505b620004276200041e85620002b3565b830182620003b8565b50505b505050565b600082821c905092915050565b60006200044f600019846008026200042f565b1980831691505092915050565b60006200046a83836200043c565b9150826002028217905092915050565b620004858262000200565b67ffffffffffffffff811115620004a157620004a06200020b565b5b620004ad825462000269565b620004ba828285620003df565b600060209050601f831160018114620004f25760008415620004dd578287015190505b620004e985826200045c565b86555062000559565b601f19841662000502866200029e565b60005b828110156200052c5784890151825560018201915060208501945060208101905062000505565b868310156200054c578489015162000548601f8916826200043c565b8355505b6001600288020188555050505b505050505050565b600073ffffffffffffffffffffffffffffffffffffffff82169050919050565b60006200058e8262000561565b9050919050565b620005a08162000581565b82525050565b6000602082019050620005bd600083018462000595565b92915050565b61215c80620005d36000396000f3fe608060405234801561001057600080fd5b50600436106101165760003560e01c8063876fc0c0116100a2578063b88d4fde11610071578063b88d4fde146102df578063c87b56dd146102fb578063d082e3811461032b578063e985e9c514610349578063f2fde38b1461037957610116565b8063876fc0c0146102575780638da5cb5b1461028757806395d89b41146102a5578063a22cb465146102c357610116565b806323b872dd116100e957806323b872dd146101b557806342842e0e146101d15780636352211e146101ed57806370a082311461021d578063715018a61461024d57610116565b806301ffc9a71461011b57806306fdde031461014b578063081812fc14610169578063095ea7b314610199575b600080fd5b6101356004803603810190610130919061192f565b610395565b6040516101429190611977565b60405180910390f35b610153610477565b6040516101609190611a22565b60405180910390f35b610183600480360381019061017e9190611a7a565b610509565b6040516101909190611ae8565b60405180910390f35b6101b360048036038101906101ae9190611b2f565b610525565b005b6101cf60048036038101906101ca9190611b6f565b61053b565b005b6101eb60048036038101906101e69190611b6f565b61063d565b005b61020760048036038101906102029190611a7a565b61065d565b6040516102149190611ae8565b60405180910390f35b61023760048036038101906102329190611bc2565b61066f565b6040516102449190611bfe565b60405180910390f35b610255610729565b005b610271600480360381019061026c9190611bc2565b61073d565b60405161027e9190611bfe565b60405180910390f35b61028f610779565b60405161029c9190611ae8565b60405180910390f35b6102ad6107a3565b6040516102ba9190611a22565b60405180910390f35b6102dd60048036038101906102d89190611c45565b610835565b005b6102f960048036038101906102f49190611dba565b61084b565b005b61031560048036038101906103109190611a7a565b610870565b6040516103229190611a22565b60405180910390f35b6103336108d9565b6040516103409190611bfe565b60405180910390f35b610363600480360381019061035e9190611e3d565b6108df565b6040516103709190611977565b60405180910390f35b610393600480360381019061038e9190611bc2565b610973565b005b60007f80ac58cd000000000000000000000000000000000000000000000000000000007bffffffffffffffffffffffffffffffffffffffffffffffffffffffff1916827bffffffffffffffffffffffffffffffffffffffffffffffffffffffff1916148061046057507f5b5e139f000000000000000000000000000000000000000000000000000000007bffffffffffffffffffffffffffffffffffffffffffffffffffffffff1916827bffffffffffffffffffffffffffffffffffffffffffffffffffffffff1916145b80610470575061046f826109f9565b5b9050919050565b60606000805461048690611eac565b80601f01602080910402602001604051908101604052809291908181526020018280546104b290611eac565b80156104ff5780601f106104d4576101008083540402835291602001916104ff565b820191906000526020600020905b8154815290600101906020018083116104e257829003601f168201915b5050505050905090565b600061051482610a63565b5061051e82610aeb565b9050919050565b6105378282610532610b28565b610b30565b5050565b600073ffffffffffffffffffffffffffffffffffffffff168273ffffffffffffffffffffffffffffffffffffffff16036105ad5760006040517f64a0ae920000000000000000000000000000000000000000000000000000000081526004016105a49190611ae8565b60405180910390fd5b60006105c183836105bc610b28565b610b42565b90508373ffffffffffffffffffffffffffffffffffffffff168173ffffffffffffffffffffffffffffffffffffffff1614610637578382826040517f64283d7b00000000000000000000000000000000000000000000000000000000815260040161062e93929190611edd565b60405180910390fd5b50505050565b6106588383836040518060200160405280600081525061084b565b505050565b600061066882610a63565b9050919050565b60008073ffffffffffffffffffffffffffffffffffffffff168273ffffffffffffffffffffffffffffffffffffffff16036106e25760006040517f89c62b640000000000000000000000000000000000000000000000000000000081526004016106d99190611ae8565b60405180910390fd5b600360008373ffffffffffffffffffffffffffffffffffffffff1673ffffffffffffffffffffffffffffffffffffffff168152602001908152602001600020549050919050565b610731610d5c565b61073b6000610de3565b565b6000610747610d5c565b600060075490506107588382610ea9565b6007600081548092919061076b90611f43565b919050555080915050919050565b6000600660009054906101000a900473ffffffffffffffffffffffffffffffffffffffff16905090565b6060600180546107b290611eac565b80601f01602080910402602001604051908101604052809291908181526020018280546107de90611eac565b801561082b5780601f106108005761010080835404028352916020019161082b565b820191906000526020600020905b81548152906001019060200180831161080e57829003601f168201915b5050505050905090565b610847610840610b28565b8383610ec7565b5050565b61085684848461053b565b61086a610861610b28565b85858585611036565b50505050565b606061087b82610a63565b5060006108866111e7565b905060008151116108a657604051806020016040528060008152506108d1565b806108b0846111fe565b6040516020016108c1929190611fc7565b6040516020818303038152906040525b915050919050565b60075481565b6000600560008473ffffffffffffffffffffffffffffffffffffffff1673ffffffffffffffffffffffffffffffffffffffff16815260200190815260200160002060008373ffffffffffffffffffffffffffffffffffffffff1673ffffffffffffffffffffffffffffffffffffffff16815260200190815260200160002060009054906101000a900460ff16905092915050565b61097b610d5c565b600073ffffffffffffffffffffffffffffffffffffffff168173ffffffffffffffffffffffffffffffffffffffff16036109ed5760006040517f1e4fbdf70000000000000000000000000000000000000000000000000000000081526004016109e49190611ae8565b60405180910390fd5b6109f681610de3565b50565b60007f01ffc9a7000000000000000000000000000000000000000000000000000000007bffffffffffffffffffffffffffffffffffffffffffffffffffffffff1916827bffffffffffffffffffffffffffffffffffffffffffffffffffffffff1916149050919050565b600080610a6f836112cc565b9050600073ffffffffffffffffffffffffffffffffffffffff168173ffffffffffffffffffffffffffffffffffffffff1603610ae257826040517f7e273289000000000000000000000000000000000000000000000000000000008152600401610ad99190611bfe565b60405180910390fd5b80915050919050565b60006004600083815260200190815260200160002060009054906101000a900473ffffffffffffffffffffffffffffffffffffffff169050919050565b600033905090565b610b3d8383836001611309565b505050565b600080610b4e846112cc565b9050600073ffffffffffffffffffffffffffffffffffffffff168373ffffffffffffffffffffffffffffffffffffffff1614610b9057610b8f8184866114ce565b5b600073ffffffffffffffffffffffffffffffffffffffff168173ffffffffffffffffffffffffffffffffffffffff1614610c2157610bd2600085600080611309565b6001600360008373ffffffffffffffffffffffffffffffffffffffff1673ffffffffffffffffffffffffffffffffffffffff168152602001908152602001600020600082825403925050819055505b600073ffffffffffffffffffffffffffffffffffffffff168573ffffffffffffffffffffffffffffffffffffffff1614610ca4576001600360008773ffffffffffffffffffffffffffffffffffffffff1673ffffffffffffffffffffffffffffffffffffffff168152602001908152602001600020600082825401925050819055505b846002600086815260200190815260200160002060006101000a81548173ffffffffffffffffffffffffffffffffffffffff021916908373ffffffffffffffffffffffffffffffffffffffff160217905550838573ffffffffffffffffffffffffffffffffffffffff168273ffffffffffffffffffffffffffffffffffffffff167fddf252ad1be2c89b69c2b068fc378daa952ba7f163c4a11628f55a4df523b3ef60405160405180910390a4809150509392505050565b610d64610b28565b73ffffffffffffffffffffffffffffffffffffffff16610d82610779565b73ffffffffffffffffffffffffffffffffffffffff1614610de157610da5610b28565b6040517f118cdaa7000000000000000000000000000000000000000000000000000000008152600401610dd89190611ae8565b60405180910390fd5b565b6000600660009054906101000a900473ffffffffffffffffffffffffffffffffffffffff16905081600660006101000a81548173ffffffffffffffffffffffffffffffffffffffff021916908373ffffffffffffffffffffffffffffffffffffffff1602179055508173ffffffffffffffffffffffffffffffffffffffff168173ffffffffffffffffffffffffffffffffffffffff167f8be0079c531659141344cd1fd0a4f28419497f9722a3daafe3b4186f6b6457e060405160405180910390a35050565b610ec3828260405180602001604052806000815250611592565b5050565b600073ffffffffffffffffffffffffffffffffffffffff168273ffffffffffffffffffffffffffffffffffffffff1603610f3857816040517f5b08ba18000000000000000000000000000000000000000000000000000000008152600401610f2f9190611ae8565b60405180910390fd5b80600560008573ffffffffffffffffffffffffffffffffffffffff1673ffffffffffffffffffffffffffffffffffffffff16815260200190815260200160002060008473ffffffffffffffffffffffffffffffffffffffff1673ffffffffffffffffffffffffffffffffffffffff16815260200190815260200160002060006101000a81548160ff0219169083151502179055508173ffffffffffffffffffffffffffffffffffffffff168373ffffffffffffffffffffffffffffffffffffffff167f17307eab39ab6107e8899845ad3d59bd9653f200f220920489ca2b5937696c31836040516110299190611977565b60405180910390a3505050565b60008373ffffffffffffffffffffffffffffffffffffffff163b11156111e0578273ffffffffffffffffffffffffffffffffffffffff1663150b7a02868685856040518563ffffffff1660e01b81526004016110959493929190612040565b6020604051808303816000875af19250505080156110d157506040513d601f19601f820116820180604052508101906110ce91906120a1565b60015b611155573d8060008114611101576040519150601f19603f3d011682016040523d82523d6000602084013e611106565b606091505b50600081510361114d57836040517f64a0ae920000000000000000000000000000000000000000000000000000000081526004016111449190611ae8565b60405180910390fd5b805181602001fd5b63150b7a0260e01b7bffffffffffffffffffffffffffffffffffffffffffffffffffffffff1916817bffffffffffffffffffffffffffffffffffffffffffffffffffffffff1916146111de57836040517f64a0ae920000000000000000000000000000000000000000000000000000000081526004016111d59190611ae8565b60405180910390fd5b505b5050505050565b606060405180602001604052806000815250905090565b60606000600161120d846115b6565b01905060008167ffffffffffffffff81111561122c5761122b611c8f565b5b6040519080825280601f01601f19166020018201604052801561125e5781602001600182028036833780820191505090505b509050600082602001820190505b6001156112c1578080600190039150507f3031323334353637383961626364656600000000000000000000000000000000600a86061a8153600a85816112b5576112b46120ce565b5b0494506000850361126c575b819350505050919050565b60006002600083815260200190815260200160002060009054906101000a900473ffffffffffffffffffffffffffffffffffffffff169050919050565b80806113425750600073ffffffffffffffffffffffffffffffffffffffff168273ffffffffffffffffffffffffffffffffffffffff1614155b1561147657600061135284610a63565b9050600073ffffffffffffffffffffffffffffffffffffffff168373ffffffffffffffffffffffffffffffffffffffff16141580156113bd57508273ffffffffffffffffffffffffffffffffffffffff168173ffffffffffffffffffffffffffffffffffffffff1614155b80156113d057506113ce81846108df565b155b1561141257826040517fa9fbf51f0000000000000000000000000000000000000000000000000000000081526004016114099190611ae8565b60405180910390fd5b811561147457838573ffffffffffffffffffffffffffffffffffffffff168273ffffffffffffffffffffffffffffffffffffffff167f8c5be1e5ebec7d5bd14f71427d1e84f3dd0314c0f7b2291e5b200ac8c7c3b92560405160405180910390a45b505b836004600085815260200190815260200160002060006101000a81548173ffffffffffffffffffffffffffffffffffffffff021916908373ffffffffffffffffffffffffffffffffffffffff16021790555050505050565b6114d9838383611709565b61158d57600073ffffffffffffffffffffffffffffffffffffffff168373ffffffffffffffffffffffffffffffffffffffff160361154e57806040517f7e2732890000000000000000000000000000000000000000000000000000000081526004016115459190611bfe565b60405180910390fd5b81816040517f177e802f0000000000000000000000000000000000000000000000000000000081526004016115849291906120fd565b60405180910390fd5b505050565b61159c83836117ca565b6115b16115a7610b28565b6000858585611036565b505050565b600080600090507a184f03e93ff9f4daa797ed6e38ed64bf6a1f0100000000000000008310611614577a184f03e93ff9f4daa797ed6e38ed64bf6a1f010000000000000000838161160a576116096120ce565b5b0492506040810190505b6d04ee2d6d415b85acef81000000008310611651576d04ee2d6d415b85acef81000000008381611647576116466120ce565b5b0492506020810190505b662386f26fc10000831061168057662386f26fc100008381611676576116756120ce565b5b0492506010810190505b6305f5e10083106116a9576305f5e100838161169f5761169e6120ce565b5b0492506008810190505b61271083106116ce5761271083816116c4576116c36120ce565b5b0492506004810190505b606483106116f157606483816116e7576116e66120ce565b5b0492506002810190505b600a8310611700576001810190505b80915050919050565b60008073ffffffffffffffffffffffffffffffffffffffff168373ffffffffffffffffffffffffffffffffffffffff16141580156117c157508273ffffffffffffffffffffffffffffffffffffffff168473ffffffffffffffffffffffffffffffffffffffff161480611782575061178184846108df565b5b806117c057508273ffffffffffffffffffffffffffffffffffffffff166117a883610aeb565b73ffffffffffffffffffffffffffffffffffffffff16145b5b90509392505050565b600073ffffffffffffffffffffffffffffffffffffffff168273ffffffffffffffffffffffffffffffffffffffff160361183c5760006040517f64a0ae920000000000000000000000000000000000000000000000000000000081526004016118339190611ae8565b60405180910390fd5b600061184a83836000610b42565b9050600073ffffffffffffffffffffffffffffffffffffffff168173ffffffffffffffffffffffffffffffffffffffff16146118be5760006040517f73c6ac6e0000000000000000000000000000000000000000000000000000000081526004016118b59190611ae8565b60405180910390fd5b505050565b6000604051905090565b600080fd5b600080fd5b60007fffffffff0000000000000000000000000000000000000000000000000000000082169050919050565b61190c816118d7565b811461191757600080fd5b50565b60008135905061192981611903565b92915050565b600060208284031215611945576119446118cd565b5b60006119538482850161191a565b91505092915050565b60008115159050919050565b6119718161195c565b82525050565b600060208201905061198c6000830184611968565b92915050565b600081519050919050565b600082825260208201905092915050565b60005b838110156119cc5780820151818401526020810190506119b1565b60008484015250505050565b6000601f19601f8301169050919050565b60006119f482611992565b6119fe818561199d565b9350611a0e8185602086016119ae565b611a17816119d8565b840191505092915050565b60006020820190508181036000830152611a3c81846119e9565b905092915050565b6000819050919050565b611a5781611a44565b8114611a6257600080fd5b50565b600081359050611a7481611a4e565b92915050565b600060208284031215611a9057611a8f6118cd565b5b6000611a9e84828501611a65565b91505092915050565b600073ffffffffffffffffffffffffffffffffffffffff82169050919050565b6000611ad282611aa7565b9050919050565b611ae281611ac7565b82525050565b6000602082019050611afd6000830184611ad9565b92915050565b611b0c81611ac7565b8114611b1757600080fd5b50565b600081359050611b2981611b03565b92915050565b60008060408385031215611b4657611b456118cd565b5b6000611b5485828601611b1a565b9250506020611b6585828601611a65565b9150509250929050565b600080600060608486031215611b8857611b876118cd565b5b6000611b9686828701611b1a565b9350506020611ba786828701611b1a565b9250506040611bb886828701611a65565b9150509250925092565b600060208284031215611bd857611bd76118cd565b5b6000611be684828501611b1a565b91505092915050565b611bf881611a44565b82525050565b6000602082019050611c136000830184611bef565b92915050565b611c228161195c565b8114611c2d57600080fd5b50565b600081359050611c3f81611c19565b92915050565b60008060408385031215611c5c57611c5b6118cd565b5b6000611c6a85828601611b1a565b9250506020611c7b85828601611c30565b9150509250929050565b600080fd5b600080fd5b7f4e487b7100000000000000000000000000000000000000000000000000000000600052604160045260246000fd5b611cc7826119d8565b810181811067ffffffffffffffff82111715611ce657611ce5611c8f565b5b80604052505050565b6000611cf96118c3565b9050611d058282611cbe565b919050565b600067ffffffffffffffff821115611d2557611d24611c8f565b5b611d2e826119d8565b9050602081019050919050565b82818337600083830152505050565b6000611d5d611d5884611d0a565b611cef565b905082815260208101848484011115611d7957611d78611c8a565b5b611d84848285611d3b565b509392505050565b600082601f830112611da157611da0611c85565b5b8135611db1848260208601611d4a565b91505092915050565b60008060008060808587031215611dd457611dd36118cd565b5b6000611de287828801611b1a565b9450506020611df387828801611b1a565b9350506040611e0487828801611a65565b925050606085013567ffffffffffffffff811115611e2557611e246118d2565b5b611e3187828801611d8c565b91505092959194509250565b60008060408385031215611e5457611e536118cd565b5b6000611e6285828601611b1a565b9250506020611e7385828601611b1a565b9150509250929050565b7f4e487b7100000000000000000000000000000000000000000000000000000000600052602260045260246000fd5b60006002820490506001821680611ec457607f821691505b602082108103611ed757611ed6611e7d565b5b50919050565b6000606082019050611ef26000830186611ad9565b611eff6020830185611bef565b611f0c6040830184611ad9565b949350505050565b7f4e487b7100000000000000000000000000000000000000000000000000000000600052601160045260246000fd5b6000611f4e82611a44565b91507fffffffffffffffffffffffffffffffffffffffffffffffffffffffffffffffff8203611f8057611f7f611f14565b5b600182019050919050565b600081905092915050565b6000611fa182611992565b611fab8185611f8b565b9350611fbb8185602086016119ae565b80840191505092915050565b6000611fd38285611f96565b9150611fdf8284611f96565b91508190509392505050565b600081519050919050565b600082825260208201905092915050565b600061201282611feb565b61201c8185611ff6565b935061202c8185602086016119ae565b612035816119d8565b840191505092915050565b60006080820190506120556000830187611ad9565b6120626020830186611ad9565b61206f6040830185611bef565b81810360608301526120818184612007565b905095945050505050565b60008151905061209b81611903565b92915050565b6000602082840312156120b7576120b66118cd565b5b60006120c58482850161208c565b91505092915050565b7f4e487b7100000000000000000000000000000000000000000000000000000000600052601260045260246000fd5b60006040820190506121126000830185611ad9565b61211f6020830184611bef565b939250505056fea264697066735822122035b83d225d813b34904666306aa1a511ca6cd2d23c1e4bb2c2859ba61ac1d0b764736f6c63430008140033",
  "linkReferences": {},
  "deployedLinkReferences": {}
}