{
  "_format": "hh-sol-artifact-1",
  "contractName": "Rebalancer",
  "sourceName": "contracts/Rebalancer.sol",
  "abi": [
    {
      "inputs": [],
      "stateMutability": "nonpayable",
      "type": "constructor"
    },
    {
      "anonymous": false,
      "inputs": [
        {
          "indexed": false,
          "internalType": "uint256",
          "name": "timestamp",
          "type": "uint256"
        }
      ],
      "name": "Rebalanced",
      "type": "event"
    },
    {
      "inputs": [],
      "name": "owner",
      "outputs": [
        {
          "internalType": "address",
          "name": "",
          "type": "address"
        }
      ],
      "stateMutability": "view",
      "type": "function"
    },
    {
      "inputs": [],
      "name": "rebalance",
      "outputs": [],
      "stateMutability": "nonpayable",
      "type": "function"
    }
  ],
  "bytecode": "0x608060405234801561001057600080fd5b50336000806101000a81548173ffffffffffffffffffffffffffffffffffffffff021916908373ffffffffffffffffffffffffffffffffffffffff160217905550610291806100606000396000f3fe608060405234801561001057600080fd5b50600436106100365760003560e01c80637d7c2a1c1461003b5780638da5cb5b14610045575b600080fd5b610043610063565b005b61004d61012a565b60405161005a919061018f565b60405180910390f35b60008054906101000a900473ffffffffffffffffffffffffffffffffffffffff1673ffffffffffffffffffffffffffffffffffffffff163373ffffffffffffffffffffffffffffffffffffffff16146100f1576040517f08c379a00000000000000000000000000000000000000000000000000000000081526004016100e890610207565b60405180910390fd5b7fc306af072396b02bf3a9782c10065cc7ff4aa842934a43f0b76f997b291237c8426040516101209190610240565b60405180910390a1565b60008054906101000a900473ffffffffffffffffffffffffffffffffffffffff1681565b600073ffffffffffffffffffffffffffffffffffffffff82169050919050565b60006101798261014e565b9050919050565b6101898161016e565b82525050565b60006020820190506101a46000830184610180565b92915050565b600082825260208201905092915050565b7f4f6e6c79206f776e65722063616e20726562616c616e63650000000000000000600082015250565b60006101f16018836101aa565b91506101fc826101bb565b602082019050919050565b60006020820190508181036000830152610220816101e4565b9050919050565b6000819050919050565b61023a81610227565b82525050565b60006020820190506102556000830184610231565b9291505056fea264697066735822122004a7b39de138ec130378f419732610d39160c4e2495cb5c5bd6f7441bce19c1364736f6c63430008140033",
  "linkReferences": {},
  "deployedLinkReferences": {}
}